{
  "_format": "hh-sol-artifact-1",
  "contractName": "Keyboards",
  "sourceName": "contracts/keyboards.sol",
  "abi": [
    {
      "anonymous": false,
      "inputs": [
        {
          "components": [
            {
              "internalType": "enum Keyboards.KeyboardSize",
              "name": "size",
              "type": "uint8"
            },
            {
              "internalType": "bool",
              "name": "isPBT",
              "type": "bool"
            },
            {
              "internalType": "string",
              "name": "filter",
              "type": "string"
            },
            {
              "internalType": "address",
              "name": "owner",
              "type": "address"
            }
          ],
          "indexed": false,
          "internalType": "struct Keyboards.Keyboard",
          "name": "keyboard",
          "type": "tuple"
        }
      ],
      "name": "KeyboardCreated",
      "type": "event"
    },
    {
      "anonymous": false,
      "inputs": [
        {
          "indexed": false,
          "internalType": "address",
          "name": "recipient",
          "type": "address"
        },
        {
          "indexed": false,
          "internalType": "uint256",
          "name": "amount",
          "type": "uint256"
        }
      ],
      "name": "TipSent",
      "type": "event"
    },
    {
      "inputs": [
        {
          "internalType": "enum Keyboards.KeyboardSize",
          "name": "_size",
          "type": "uint8"
        },
        {
          "internalType": "bool",
          "name": "_isPBT",
          "type": "bool"
        },
        {
          "internalType": "string",
          "name": "_filter",
          "type": "string"
        }
      ],
      "name": "create",
      "outputs": [],
      "stateMutability": "nonpayable",
      "type": "function"
    },
    {
      "inputs": [
        {
          "internalType": "uint256",
          "name": "",
          "type": "uint256"
        }
      ],
      "name": "createdKeyboards",
      "outputs": [
        {
          "internalType": "enum Keyboards.KeyboardSize",
          "name": "size",
          "type": "uint8"
        },
        {
          "internalType": "bool",
          "name": "isPBT",
          "type": "bool"
        },
        {
          "internalType": "string",
          "name": "filter",
          "type": "string"
        },
        {
          "internalType": "address",
          "name": "owner",
          "type": "address"
        }
      ],
      "stateMutability": "view",
      "type": "function"
    },
    {
      "inputs": [],
      "name": "getKeyboards",
      "outputs": [
        {
          "components": [
            {
              "internalType": "enum Keyboards.KeyboardSize",
              "name": "size",
              "type": "uint8"
            },
            {
              "internalType": "bool",
              "name": "isPBT",
              "type": "bool"
            },
            {
              "internalType": "string",
              "name": "filter",
              "type": "string"
            },
            {
              "internalType": "address",
              "name": "owner",
              "type": "address"
            }
          ],
          "internalType": "struct Keyboards.Keyboard[]",
          "name": "",
          "type": "tuple[]"
        }
      ],
      "stateMutability": "view",
      "type": "function"
    },
    {
      "inputs": [
        {
          "internalType": "uint256",
          "name": "_index",
          "type": "uint256"
        }
      ],
      "name": "tipCreator",
      "outputs": [],
      "stateMutability": "payable",
      "type": "function"
    }
  ],
  "bytecode": "0x608060405234801561001057600080fd5b50610f29806100206000396000f3fe60806040526004361061003f5760003560e01c806352810aa114610044578063778bc8471461006f578063b97be95e146100af578063d80ad431146100cb575b600080fd5b34801561005057600080fd5b506100596100f4565b6040516100669190610b17565b60405180910390f35b34801561007b57600080fd5b506100966004803603810190610091919061088c565b6102dd565b6040516100a69493929190610b39565b60405180910390f35b6100c960048036038101906100c4919061088c565b6103df565b005b3480156100d757600080fd5b506100f260048036038101906100ed9190610820565b6104f5565b005b60606000805480602002602001604051908101604052809291908181526020016000905b828210156102d457838290600052602060002090600302016040518060800160405290816000820160009054906101000a900460ff166003811115610186577f4e487b7100000000000000000000000000000000000000000000000000000000600052602160045260246000fd5b60038111156101be577f4e487b7100000000000000000000000000000000000000000000000000000000600052602160045260246000fd5b81526020016000820160019054906101000a900460ff161515151581526020016001820180546101ed90610da2565b80601f016020809104026020016040519081016040528092919081815260200182805461021990610da2565b80156102665780601f1061023b57610100808354040283529160200191610266565b820191906000526020600020905b81548152906001019060200180831161024957829003601f168201915b505050505081526020016002820160009054906101000a900473ffffffffffffffffffffffffffffffffffffffff1673ffffffffffffffffffffffffffffffffffffffff1673ffffffffffffffffffffffffffffffffffffffff168152505081526020019060010190610118565b50505050905090565b600081815481106102ed57600080fd5b90600052602060002090600302016000915090508060000160009054906101000a900460ff16908060000160019054906101000a900460ff169080600101805461033690610da2565b80601f016020809104026020016040519081016040528092919081815260200182805461036290610da2565b80156103af5780601f10610384576101008083540402835291602001916103af565b820191906000526020600020905b81548152906001019060200180831161039257829003601f168201915b5050505050908060020160009054906101000a900473ffffffffffffffffffffffffffffffffffffffff16905084565b600080828154811061041a577f4e487b7100000000000000000000000000000000000000000000000000000000600052603260045260246000fd5b906000526020600020906003020160020160009054906101000a900473ffffffffffffffffffffffffffffffffffffffff1690508073ffffffffffffffffffffffffffffffffffffffff166108fc60056064346104779190610c0d565b6104819190610c3e565b3461048c9190610c98565b9081150290604051600060405180830381858888f193505050501580156104b7573d6000803e3d6000fd5b507f171011172a05babdafffeb4c3cb97a07f0e1e7a0538eab4f4331336fb76fef0581346040516104e9929190610aee565b60405180910390a15050565b6000604051806080016040528086600381111561053b577f4e487b7100000000000000000000000000000000000000000000000000000000600052602160045260246000fd5b8152602001851515815260200184848080601f016020809104026020016040519081016040528093929190818152602001838380828437600081840152601f19601f8201169050808301925050505050505081526020013373ffffffffffffffffffffffffffffffffffffffff168152509050600081908060018154018082558091505060019003906000526020600020906003020160009091909190915060008201518160000160006101000a81548160ff0219169083600381111561062b577f4e487b7100000000000000000000000000000000000000000000000000000000600052602160045260246000fd5b021790555060208201518160000160016101000a81548160ff021916908315150217905550604082015181600101908051906020019061066c9291906106f4565b5060608201518160020160006101000a81548173ffffffffffffffffffffffffffffffffffffffff021916908373ffffffffffffffffffffffffffffffffffffffff16021790555050507f10a5f72cc15ad697630d0470547e58335ec196e4ce08851d095d19398b1cbdd7816040516106e59190610b85565b60405180910390a15050505050565b82805461070090610da2565b90600052602060002090601f0160209004810192826107225760008555610769565b82601f1061073b57805160ff1916838001178555610769565b82800160010185558215610769579182015b8281111561076857825182559160200191906001019061074d565b5b509050610776919061077a565b5090565b5b8082111561079357600081600090555060010161077b565b5090565b6000813590506107a681610eb5565b92915050565b6000813590506107bb81610ecc565b92915050565b60008083601f8401126107d357600080fd5b8235905067ffffffffffffffff8111156107ec57600080fd5b60208301915083600182028301111561080457600080fd5b9250929050565b60008135905061081a81610edc565b92915050565b6000806000806060858703121561083657600080fd5b6000610844878288016107ac565b945050602061085587828801610797565b935050604085013567ffffffffffffffff81111561087257600080fd5b61087e878288016107c1565b925092505092959194509250565b60006020828403121561089e57600080fd5b60006108ac8482850161080b565b91505092915050565b60006108c18383610a19565b905092915050565b6108d281610d27565b82525050565b6108e181610ccc565b82525050565b6108f081610ccc565b82525050565b600061090182610bb7565b61090b8185610bda565b93508360208202850161091d85610ba7565b8060005b85811015610959578484038952815161093a85826108b5565b945061094583610bcd565b925060208a01995050600181019050610921565b50829750879550505050505092915050565b61097481610cde565b82525050565b61098381610cde565b82525050565b61099281610d39565b82525050565b6109a181610d39565b82525050565b60006109b282610bc2565b6109bc8185610beb565b93506109cc818560208601610d6f565b6109d581610e90565b840191505092915050565b60006109eb82610bc2565b6109f58185610bfc565b9350610a05818560208601610d6f565b610a0e81610e90565b840191505092915050565b6000608083016000830151610a316000860182610989565b506020830151610a44602086018261096b565b5060408301518482036040860152610a5c82826109a7565b9150506060830151610a7160608601826108d8565b508091505092915050565b6000608083016000830151610a946000860182610989565b506020830151610aa7602086018261096b565b5060408301518482036040860152610abf82826109a7565b9150506060830151610ad460608601826108d8565b508091505092915050565b610ae881610d1d565b82525050565b6000604082019050610b0360008301856108c9565b610b106020830184610adf565b9392505050565b60006020820190508181036000830152610b3181846108f6565b905092915050565b6000608082019050610b4e6000830187610998565b610b5b602083018661097a565b8181036040830152610b6d81856109e0565b9050610b7c60608301846108e7565b95945050505050565b60006020820190508181036000830152610b9f8184610a7c565b905092915050565b6000819050602082019050919050565b600081519050919050565b600081519050919050565b6000602082019050919050565b600082825260208201905092915050565b600082825260208201905092915050565b600082825260208201905092915050565b6000610c1882610d1d565b9150610c2383610d1d565b925082610c3357610c32610e03565b5b828204905092915050565b6000610c4982610d1d565b9150610c5483610d1d565b9250817fffffffffffffffffffffffffffffffffffffffffffffffffffffffffffffffff0483118215151615610c8d57610c8c610dd4565b5b828202905092915050565b6000610ca382610d1d565b9150610cae83610d1d565b925082821015610cc157610cc0610dd4565b5b828203905092915050565b6000610cd782610cfd565b9050919050565b60008115159050919050565b6000819050610cf882610ea1565b919050565b600073ffffffffffffffffffffffffffffffffffffffff82169050919050565b6000819050919050565b6000610d3282610d4b565b9050919050565b6000610d4482610cea565b9050919050565b6000610d5682610d5d565b9050919050565b6000610d6882610cfd565b9050919050565b60005b83811015610d8d578082015181840152602081019050610d72565b83811115610d9c576000848401525b50505050565b60006002820490506001821680610dba57607f821691505b60208210811415610dce57610dcd610e61565b5b50919050565b7f4e487b7100000000000000000000000000000000000000000000000000000000600052601160045260246000fd5b7f4e487b7100000000000000000000000000000000000000000000000000000000600052601260045260246000fd5b7f4e487b7100000000000000000000000000000000000000000000000000000000600052602160045260246000fd5b7f4e487b7100000000000000000000000000000000000000000000000000000000600052602260045260246000fd5b6000601f19601f8301169050919050565b60048110610eb257610eb1610e32565b5b50565b610ebe81610cde565b8114610ec957600080fd5b50565b60048110610ed957600080fd5b50565b610ee581610d1d565b8114610ef057600080fd5b5056fea264697066735822122089aa3cbc0c2ac28d30d05e4596d5afde1575d492eea3e064cdd52b97e8b0896c64736f6c63430008040033",
  "linkReferences": {},
  "deployedLinkReferences": {}
}